{
  "_format": "hh-sol-artifact-1",
  "contractName": "PayLaterFood",
  "sourceName": "contracts/PayLaterFood.sol",
  "abi": [
    {
      "inputs": [],
      "stateMutability": "nonpayable",
      "type": "constructor"
    },
    {
      "anonymous": false,
      "inputs": [
        {
          "indexed": false,
          "internalType": "uint256",
          "name": "id",
          "type": "uint256"
        },
        {
          "indexed": false,
          "internalType": "address",
          "name": "buyer",
          "type": "address"
        },
        {
          "indexed": false,
          "internalType": "uint256",
          "name": "amount",
          "type": "uint256"
        }
      ],
      "name": "OrderCreated",
      "type": "event"
    },
    {
      "anonymous": false,
      "inputs": [
        {
          "indexed": false,
          "internalType": "uint256",
          "name": "id",
          "type": "uint256"
        },
        {
          "indexed": false,
          "internalType": "address",
          "name": "buyer",
          "type": "address"
        },
        {
          "indexed": false,
          "internalType": "uint256",
          "name": "amount",
          "type": "uint256"
        }
      ],
      "name": "OrderPaid",
      "type": "event"
    },
    {
      "inputs": [
        {
          "internalType": "uint256",
          "name": "amount",
          "type": "uint256"
        }
      ],
      "name": "createOrder",
      "outputs": [
        {
          "internalType": "uint256",
          "name": "",
          "type": "uint256"
        }
      ],
      "stateMutability": "nonpayable",
      "type": "function"
    },
    {
      "inputs": [
        {
          "internalType": "uint256",
          "name": "id",
          "type": "uint256"
        }
      ],
      "name": "getOrder",
      "outputs": [
        {
          "components": [
            {
              "internalType": "uint256",
              "name": "id",
              "type": "uint256"
            },
            {
              "internalType": "address",
              "name": "buyer",
              "type": "address"
            },
            {
              "internalType": "uint256",
              "name": "amount",
              "type": "uint256"
            },
            {
              "internalType": "bool",
              "name": "isPaid",
              "type": "bool"
            }
          ],
          "internalType": "struct PayLaterFood.Order",
          "name": "",
          "type": "tuple"
        }
      ],
      "stateMutability": "view",
      "type": "function"
    },
    {
      "inputs": [],
      "name": "orderCounter",
      "outputs": [
        {
          "internalType": "uint256",
          "name": "",
          "type": "uint256"
        }
      ],
      "stateMutability": "view",
      "type": "function"
    },
    {
      "inputs": [
        {
          "internalType": "uint256",
          "name": "",
          "type": "uint256"
        }
      ],
      "name": "orders",
      "outputs": [
        {
          "internalType": "uint256",
          "name": "id",
          "type": "uint256"
        },
        {
          "internalType": "address",
          "name": "buyer",
          "type": "address"
        },
        {
          "internalType": "uint256",
          "name": "amount",
          "type": "uint256"
        },
        {
          "internalType": "bool",
          "name": "isPaid",
          "type": "bool"
        }
      ],
      "stateMutability": "view",
      "type": "function"
    },
    {
      "inputs": [],
      "name": "owner",
      "outputs": [
        {
          "internalType": "address",
          "name": "",
          "type": "address"
        }
      ],
      "stateMutability": "view",
      "type": "function"
    },
    {
      "inputs": [
        {
          "internalType": "uint256",
          "name": "id",
          "type": "uint256"
        }
      ],
      "name": "payOrder",
      "outputs": [],
      "stateMutability": "payable",
      "type": "function"
    }
  ],
  "bytecode": "0x6080604052348015600f57600080fd5b50336000806101000a81548173ffffffffffffffffffffffffffffffffffffffff021916908373ffffffffffffffffffffffffffffffffffffffff1602179055506000600181905550610a7d806100676000396000f3fe6080604052600436106100555760003560e01c80632a685d3c1461005a5780638da5cb5b14610076578063a85c38ef146100a1578063b789bf52146100e1578063d09ef2411461010c578063f8ad8cd714610149575b600080fd5b610074600480360381019061006f919061066e565b610186565b005b34801561008257600080fd5b5061008b61038a565b60405161009891906106dc565b60405180910390f35b3480156100ad57600080fd5b506100c860048036038101906100c3919061066e565b6103ae565b6040516100d89493929190610721565b60405180910390f35b3480156100ed57600080fd5b506100f661040b565b6040516101039190610766565b60405180910390f35b34801561011857600080fd5b50610133600480360381019061012e919061066e565b610411565b6040516101409190610803565b60405180910390f35b34801561015557600080fd5b50610170600480360381019061016b919061066e565b6104c3565b60405161017d9190610766565b60405180910390f35b60006002600083815260200190815260200160002090503373ffffffffffffffffffffffffffffffffffffffff168160010160009054906101000a900473ffffffffffffffffffffffffffffffffffffffff1673ffffffffffffffffffffffffffffffffffffffff161461022f576040517f08c379a0000000000000000000000000000000000000000000000000000000008152600401610226906108a1565b60405180910390fd5b8060030160009054906101000a900460ff1615610281576040517f08c379a00000000000000000000000000000000000000000000000000000000081526004016102789061090d565b60405180910390fd5b806002015434146102c7576040517f08c379a00000000000000000000000000000000000000000000000000000000081526004016102be90610979565b60405180910390fd5b60018160030160006101000a81548160ff02191690831515021790555060008054906101000a900473ffffffffffffffffffffffffffffffffffffffff1673ffffffffffffffffffffffffffffffffffffffff166108fc349081150290604051600060405180830381858888f1935050505015801561034a573d6000803e3d6000fd5b507fa4678e82fe7b97eb2133ead828ed5d14ebb0c83961617dc347b698964d070b6682333460405161037e93929190610999565b60405180910390a15050565b60008054906101000a900473ffffffffffffffffffffffffffffffffffffffff1681565b60026020528060005260406000206000915090508060000154908060010160009054906101000a900473ffffffffffffffffffffffffffffffffffffffff16908060020154908060030160009054906101000a900460ff16905084565b60015481565b6104196105f3565b60026000838152602001908152602001600020604051806080016040529081600082015481526020016001820160009054906101000a900473ffffffffffffffffffffffffffffffffffffffff1673ffffffffffffffffffffffffffffffffffffffff1673ffffffffffffffffffffffffffffffffffffffff168152602001600282015481526020016003820160009054906101000a900460ff1615151515815250509050919050565b6000600160008154809291906104d8906109ff565b9190505550604051806080016040528060015481526020013373ffffffffffffffffffffffffffffffffffffffff168152602001838152602001600015158152506002600060015481526020019081526020016000206000820151816000015560208201518160010160006101000a81548173ffffffffffffffffffffffffffffffffffffffff021916908373ffffffffffffffffffffffffffffffffffffffff1602179055506040820151816002015560608201518160030160006101000a81548160ff0219169083151502179055509050507f28eb86fd03c9bd96a8a83e4a46ab2ad257b70cea893d98ad6d482e96aa25fad060015433846040516105e193929190610999565b60405180910390a16001549050919050565b604051806080016040528060008152602001600073ffffffffffffffffffffffffffffffffffffffff168152602001600081526020016000151581525090565b600080fd5b6000819050919050565b61064b81610638565b811461065657600080fd5b50565b60008135905061066881610642565b92915050565b60006020828403121561068457610683610633565b5b600061069284828501610659565b91505092915050565b600073ffffffffffffffffffffffffffffffffffffffff82169050919050565b60006106c68261069b565b9050919050565b6106d6816106bb565b82525050565b60006020820190506106f160008301846106cd565b92915050565b61070081610638565b82525050565b60008115159050919050565b61071b81610706565b82525050565b600060808201905061073660008301876106f7565b61074360208301866106cd565b61075060408301856106f7565b61075d6060830184610712565b95945050505050565b600060208201905061077b60008301846106f7565b92915050565b61078a81610638565b82525050565b610799816106bb565b82525050565b6107a881610706565b82525050565b6080820160008201516107c46000850182610781565b5060208201516107d76020850182610790565b5060408201516107ea6040850182610781565b5060608201516107fd606085018261079f565b50505050565b600060808201905061081860008301846107ae565b92915050565b600082825260208201905092915050565b7f4f6e6c792062757965722063616e2070617920666f722074686973206f72646560008201527f7200000000000000000000000000000000000000000000000000000000000000602082015250565b600061088b60218361081e565b91506108968261082f565b604082019050919050565b600060208201905081810360008301526108ba8161087e565b9050919050565b7f4f7264657220616c726561647920706169640000000000000000000000000000600082015250565b60006108f760128361081e565b9150610902826108c1565b602082019050919050565b60006020820190508181036000830152610926816108ea565b9050919050565b7f496e636f7272656374207061796d656e7420616d6f756e740000000000000000600082015250565b600061096360188361081e565b915061096e8261092d565b602082019050919050565b6000602082019050818103600083015261099281610956565b9050919050565b60006060820190506109ae60008301866106f7565b6109bb60208301856106cd565b6109c860408301846106f7565b949350505050565b7f4e487b7100000000000000000000000000000000000000000000000000000000600052601160045260246000fd5b6000610a0a82610638565b91507fffffffffffffffffffffffffffffffffffffffffffffffffffffffffffffffff8203610a3c57610a3b6109d0565b5b60018201905091905056fea26469706673582212202d3c2e9eb6b24677872e35f41c1a5b55504c834fd7c13be5cd6cb4be337b32c364736f6c634300081c0033",
  "linkReferences": {},
  "deployedLinkReferences": {}
}