{
  "contractName": "PayLater",
  "abi": [
    {
      "inputs": [],
      "stateMutability": "nonpayable",
      "type": "constructor"
    },
    {
      "anonymous": false,
      "inputs": [
        {
          "indexed": true,
          "internalType": "address",
          "name": "user",
          "type": "address"
        },
        {
          "indexed": false,
          "internalType": "uint256",
          "name": "amount",
          "type": "uint256"
        }
      ],
      "name": "PaymentMade",
      "type": "event"
    },
    {
      "anonymous": false,
      "inputs": [
        {
          "indexed": true,
          "internalType": "address",
          "name": "user",
          "type": "address"
        },
        {
          "indexed": false,
          "internalType": "uint256",
          "name": "amount",
          "type": "uint256"
        }
      ],
      "name": "PurchaseMade",
      "type": "event"
    },
    {
      "inputs": [
        {
          "internalType": "address",
          "name": "",
          "type": "address"
        }
      ],
      "name": "balances",
      "outputs": [
        {
          "internalType": "uint256",
          "name": "",
          "type": "uint256"
        }
      ],
      "stateMutability": "view",
      "type": "function",
      "constant": true
    },
    {
      "inputs": [],
      "name": "creditLimit",
      "outputs": [
        {
          "internalType": "uint256",
          "name": "",
          "type": "uint256"
        }
      ],
      "stateMutability": "view",
      "type": "function",
      "constant": true
    },
    {
      "inputs": [],
      "name": "owner",
      "outputs": [
        {
          "internalType": "address",
          "name": "",
          "type": "address"
        }
      ],
      "stateMutability": "view",
      "type": "function",
      "constant": true
    },
    {
      "inputs": [
        {
          "internalType": "uint256",
          "name": "amount",
          "type": "uint256"
        }
      ],
      "name": "makePurchase",
      "outputs": [],
      "stateMutability": "nonpayable",
      "type": "function"
    },
    {
      "inputs": [
        {
          "internalType": "uint256",
          "name": "amount",
          "type": "uint256"
        }
      ],
      "name": "makePayment",
      "outputs": [],
      "stateMutability": "payable",
      "type": "function",
      "payable": true
    },
    {
      "inputs": [],
      "name": "getBalance",
      "outputs": [
        {
          "internalType": "uint256",
          "name": "",
          "type": "uint256"
        }
      ],
      "stateMutability": "view",
      "type": "function",
      "constant": true
    }
  ],
  "bytecode": "0x60806040526103e860015534801561001657600080fd5b50336000806101000a81548173ffffffffffffffffffffffffffffffffffffffff021916908373ffffffffffffffffffffffffffffffffffffffff1602179055506107fe806100666000396000f3fe6080604052600436106100555760003560e01c806312065fe01461005a57806327d4dbe91461008557806327e235e3146100b05780635114cb52146100ed5780638da5cb5b14610109578063c4175a4414610134575b600080fd5b34801561006657600080fd5b5061006f61015d565b60405161007c9190610679565b60405180910390f35b34801561009157600080fd5b5061009a6101a4565b6040516100a79190610679565b60405180910390f35b3480156100bc57600080fd5b506100d760048036038101906100d291906104ce565b6101aa565b6040516100e49190610679565b60405180910390f35b610107600480360381019061010291906104f7565b6101c2565b005b34801561011557600080fd5b5061011e610394565b60405161012b91906105fe565b60405180910390f35b34801561014057600080fd5b5061015b600480360381019061015691906104f7565b6103b8565b005b6000600260003373ffffffffffffffffffffffffffffffffffffffff1673ffffffffffffffffffffffffffffffffffffffff16815260200190815260200160002054905090565b60015481565b60026020528060005260406000206000915090505481565b80600260003373ffffffffffffffffffffffffffffffffffffffff1673ffffffffffffffffffffffffffffffffffffffff168152602001908152602001600020541015610244576040517f08c379a000000000000000000000000000000000000000000000000000000000815260040161023b90610659565b60405180910390fd5b803414610286576040517f08c379a000000000000000000000000000000000000000000000000000000000815260040161027d90610639565b60405180910390fd5b80600260003373ffffffffffffffffffffffffffffffffffffffff1673ffffffffffffffffffffffffffffffffffffffff16815260200190815260200160002060008282546102d591906106fb565b9250508190555060008054906101000a900473ffffffffffffffffffffffffffffffffffffffff1673ffffffffffffffffffffffffffffffffffffffff166108fc349081150290604051600060405180830381858888f19350505050158015610342573d6000803e3d6000fd5b503373ffffffffffffffffffffffffffffffffffffffff167f3a2d0e41c506b136330c6e5e0295ccbf0966daece99bfe7c89020cc01dbfb8d6826040516103899190610679565b60405180910390a250565b60008054906101000a900473ffffffffffffffffffffffffffffffffffffffff1681565b6001548111156103fd576040517f08c379a00000000000000000000000000000000000000000000000000000000081526004016103f490610619565b60405180910390fd5b80600260003373ffffffffffffffffffffffffffffffffffffffff1673ffffffffffffffffffffffffffffffffffffffff168152602001908152602001600020600082825461044c91906106a5565b925050819055503373ffffffffffffffffffffffffffffffffffffffff167ff9d63452d3dee02c16881ac0479053ed7b5800b33ebad146ecf13d4d983023a0826040516104999190610679565b60405180910390a250565b6000813590506104b38161079a565b92915050565b6000813590506104c8816107b1565b92915050565b6000602082840312156104e057600080fd5b60006104ee848285016104a4565b91505092915050565b60006020828403121561050957600080fd5b6000610517848285016104b9565b91505092915050565b6105298161072f565b82525050565b600061053c601b83610694565b91507f416d6f756e74206578636565647320637265646974206c696d697400000000006000830152602082019050919050565b600061057c602083610694565b91507f53656e742076616c756520646f65736e2774206d61746368207061796d656e746000830152602082019050919050565b60006105bc601783610694565b91507f5061796d656e7420657863656564732062616c616e63650000000000000000006000830152602082019050919050565b6105f881610761565b82525050565b60006020820190506106136000830184610520565b92915050565b600060208201905081810360008301526106328161052f565b9050919050565b600060208201905081810360008301526106528161056f565b9050919050565b60006020820190508181036000830152610672816105af565b9050919050565b600060208201905061068e60008301846105ef565b92915050565b600082825260208201905092915050565b60006106b082610761565b91506106bb83610761565b9250827fffffffffffffffffffffffffffffffffffffffffffffffffffffffffffffffff038211156106f0576106ef61076b565b5b828201905092915050565b600061070682610761565b915061071183610761565b9250828210156107245761072361076b565b5b828203905092915050565b600061073a82610741565b9050919050565b600073ffffffffffffffffffffffffffffffffffffffff82169050919050565b6000819050919050565b7f4e487b7100000000000000000000000000000000000000000000000000000000600052601160045260246000fd5b6107a38161072f565b81146107ae57600080fd5b50565b6107ba81610761565b81146107c557600080fd5b5056fea26469706673582212208e02c9cfe48392279f0dc01b59e629a1f754a00d541c8e6d1a0898495fd0836c64736f6c63430008000033",
  "immutableReferences": {},
  "source": "// SPDX-License-Identifier: MIT\r\npragma solidity ^0.8.0;\r\n\r\ncontract PayLater {\r\n    address public owner;\r\n    uint256 public creditLimit = 1000; // Credit Limit for PayLater\r\n    mapping(address => uint256) public balances;\r\n\r\n    event PurchaseMade(address indexed user, uint256 amount);\r\n    event PaymentMade(address indexed user, uint256 amount);\r\n\r\n    constructor() {\r\n        owner = msg.sender;\r\n    }\r\n\r\n    modifier onlyOwner() {\r\n        require(msg.sender == owner, \"Not the contract owner\");\r\n        _;\r\n    }\r\n\r\n    // Fungsi untuk membeli dengan PayLater\r\n    function makePurchase(uint256 amount) public {\r\n        require(amount <= creditLimit, \"Amount exceeds credit limit\");\r\n        balances[msg.sender] += amount;\r\n        emit PurchaseMade(msg.sender, amount);\r\n    }\r\n\r\n    // Fungsi untuk melakukan pembayaran\r\n    function makePayment(uint256 amount) public payable {\r\n        require(balances[msg.sender] >= amount, \"Payment exceeds balance\");\r\n        require(msg.value == amount, \"Sent value doesn't match payment\");\r\n\r\n        balances[msg.sender] -= amount;\r\n        payable(owner).transfer(msg.value);\r\n        emit PaymentMade(msg.sender, amount);\r\n    }\r\n\r\n    // Fungsi untuk memeriksa saldo yang terhutang\r\n    function getBalance() public view returns (uint256) {\r\n        return balances[msg.sender];\r\n    }\r\n}\r\n",
  "sourcePath": "C:\\Users\\yugi\\PayLaterContract\\contracts\\PayLater.sol",
  "compiler": {
    "name": "solc",
    "version": "0.8.0+commit.c7dfd78e.Emscripten.clang"
  },
  "schemaVersion": "3.4.16",
  "updatedAt": "2024-12-17T05:55:48.230Z",
  "networkType": "ethereum",
  "devdoc": {
    "kind": "dev",
    "methods": {},
    "version": 1
  },
  "userdoc": {
    "kind": "user",
    "methods": {},
    "version": 1
  }
}